{
  "address": "0xe7f1725E7734CE288F8367e1Bb143E90bb3F0512",
  "abi": [
    {
      "inputs": [
        {
          "internalType": "address",
          "name": "_wNFTAddress",
          "type": "address"
        }
      ],
      "stateMutability": "nonpayable",
      "type": "constructor"
    },
    {
      "anonymous": false,
      "inputs": [
        {
          "indexed": true,
          "internalType": "address",
          "name": "previousOwner",
          "type": "address"
        },
        {
          "indexed": true,
          "internalType": "address",
          "name": "newOwner",
          "type": "address"
        }
      ],
      "name": "OwnershipTransferred",
      "type": "event"
    },
    {
      "inputs": [
        {
          "internalType": "uint256",
          "name": "",
          "type": "uint256"
        }
      ],
      "name": "nftsForRenting",
      "outputs": [
        {
          "internalType": "uint256",
          "name": "pricePerDay",
          "type": "uint256"
        }
      ],
      "stateMutability": "view",
      "type": "function"
    },
    {
      "inputs": [
        {
          "internalType": "uint256",
          "name": "_tokenId",
          "type": "uint256"
        },
        {
          "internalType": "uint256",
          "name": "_pricePerDay",
          "type": "uint256"
        }
      ],
      "name": "offerForRent",
      "outputs": [],
      "stateMutability": "nonpayable",
      "type": "function"
    },
    {
      "inputs": [
        {
          "internalType": "address",
          "name": "",
          "type": "address"
        },
        {
          "internalType": "address",
          "name": "",
          "type": "address"
        },
        {
          "internalType": "uint256[]",
          "name": "",
          "type": "uint256[]"
        },
        {
          "internalType": "uint256[]",
          "name": "",
          "type": "uint256[]"
        },
        {
          "internalType": "bytes",
          "name": "",
          "type": "bytes"
        }
      ],
      "name": "onERC1155BatchReceived",
      "outputs": [
        {
          "internalType": "bytes4",
          "name": "",
          "type": "bytes4"
        }
      ],
      "stateMutability": "nonpayable",
      "type": "function"
    },
    {
      "inputs": [
        {
          "internalType": "address",
          "name": "",
          "type": "address"
        },
        {
          "internalType": "address",
          "name": "",
          "type": "address"
        },
        {
          "internalType": "uint256",
          "name": "",
          "type": "uint256"
        },
        {
          "internalType": "uint256",
          "name": "",
          "type": "uint256"
        },
        {
          "internalType": "bytes",
          "name": "",
          "type": "bytes"
        }
      ],
      "name": "onERC1155Received",
      "outputs": [
        {
          "internalType": "bytes4",
          "name": "",
          "type": "bytes4"
        }
      ],
      "stateMutability": "nonpayable",
      "type": "function"
    },
    {
      "inputs": [
        {
          "internalType": "address",
          "name": "",
          "type": "address"
        },
        {
          "internalType": "address",
          "name": "",
          "type": "address"
        },
        {
          "internalType": "uint256",
          "name": "",
          "type": "uint256"
        },
        {
          "internalType": "bytes",
          "name": "",
          "type": "bytes"
        }
      ],
      "name": "onERC721Received",
      "outputs": [
        {
          "internalType": "bytes4",
          "name": "",
          "type": "bytes4"
        }
      ],
      "stateMutability": "nonpayable",
      "type": "function"
    },
    {
      "inputs": [],
      "name": "owner",
      "outputs": [
        {
          "internalType": "address",
          "name": "",
          "type": "address"
        }
      ],
      "stateMutability": "view",
      "type": "function"
    },
    {
      "inputs": [],
      "name": "renounceOwnership",
      "outputs": [],
      "stateMutability": "nonpayable",
      "type": "function"
    },
    {
      "inputs": [
        {
          "internalType": "uint256",
          "name": "_tokenId",
          "type": "uint256"
        },
        {
          "internalType": "uint256",
          "name": "_duration",
          "type": "uint256"
        }
      ],
      "name": "rent",
      "outputs": [],
      "stateMutability": "payable",
      "type": "function"
    },
    {
      "inputs": [
        {
          "internalType": "uint256",
          "name": "",
          "type": "uint256"
        }
      ],
      "name": "rentedNFTs",
      "outputs": [
        {
          "internalType": "uint256",
          "name": "rentStartTimestamp",
          "type": "uint256"
        },
        {
          "internalType": "uint256",
          "name": "rentDuration",
          "type": "uint256"
        },
        {
          "internalType": "uint256",
          "name": "pricePerDay",
          "type": "uint256"
        }
      ],
      "stateMutability": "view",
      "type": "function"
    },
    {
      "inputs": [
        {
          "internalType": "address",
          "name": "_contractAddress",
          "type": "address"
        }
      ],
      "name": "setWNFT",
      "outputs": [],
      "stateMutability": "nonpayable",
      "type": "function"
    },
    {
      "inputs": [
        {
          "internalType": "bytes4",
          "name": "interfaceId",
          "type": "bytes4"
        }
      ],
      "name": "supportsInterface",
      "outputs": [
        {
          "internalType": "bool",
          "name": "",
          "type": "bool"
        }
      ],
      "stateMutability": "view",
      "type": "function"
    },
    {
      "inputs": [
        {
          "internalType": "address",
          "name": "newOwner",
          "type": "address"
        }
      ],
      "name": "transferOwnership",
      "outputs": [],
      "stateMutability": "nonpayable",
      "type": "function"
    },
    {
      "inputs": [
        {
          "internalType": "uint256",
          "name": "_tokenId",
          "type": "uint256"
        }
      ],
      "name": "unwrap",
      "outputs": [
        {
          "internalType": "bool",
          "name": "",
          "type": "bool"
        }
      ],
      "stateMutability": "nonpayable",
      "type": "function"
    },
    {
      "inputs": [
        {
          "internalType": "address",
          "name": "_contractAddress",
          "type": "address"
        },
        {
          "internalType": "uint256",
          "name": "_tokenId",
          "type": "uint256"
        }
      ],
      "name": "wrap",
      "outputs": [
        {
          "internalType": "bool",
          "name": "",
          "type": "bool"
        }
      ],
      "stateMutability": "nonpayable",
      "type": "function"
    }
  ],
  "transactionHash": "0x5813aeddb43849e48273c564c2c4aba861852a4c9c7b261e0f340bbfb091551a",
  "args": [
    "0x5FbDB2315678afecb367f032d93F642f64180aa3"
  ],
  "numDeployments": 1,
  "solcInputHash": "53a3f039a81b75e29865af28ca032b0c",
  "bytecode": "0x608060405234801561001057600080fd5b5060405161189938038061189983398101604081905261002f916100ad565b6100383361005d565b600180546001600160a01b0319166001600160a01b03929092169190911790556100dd565b600080546001600160a01b038381166001600160a01b0319831681178455604051919092169283917f8be0079c531659141344cd1fd0a4f28419497f9722a3daafe3b4186f6b6457e09190a35050565b6000602082840312156100bf57600080fd5b81516001600160a01b03811681146100d657600080fd5b9392505050565b6117ad806100ec6000396000f3fe6080604052600436106100dd5760003560e01c8063bc197c811161007f578063de0e9a3e11610059578063de0e9a3e1461028f578063e52a08d9146102af578063f23a6e61146102ea578063f2fde38b1461031657600080fd5b8063bc197c81146101ed578063bf376c7a14610219578063d20bdec21461023957600080fd5b8063715018a6116100bb578063715018a61461017d578063783a112b146101925780638da5cb5b146101a5578063a371b4a4146101cd57600080fd5b806301ffc9a7146100e2578063150b7a0214610117578063270be7011461015b575b600080fd5b3480156100ee57600080fd5b506101026100fd3660046111b9565b610336565b60405190151581526020015b60405180910390f35b34801561012357600080fd5b506101426101323660046112af565b630a85bd0160e11b949350505050565b6040516001600160e01b0319909116815260200161010e565b34801561016757600080fd5b5061017b61017636600461131b565b61036d565b005b34801561018957600080fd5b5061017b610522565b61017b6101a036600461131b565b610558565b3480156101b157600080fd5b506000546040516001600160a01b03909116815260200161010e565b3480156101d957600080fd5b5061017b6101e836600461133d565b6107b5565b3480156101f957600080fd5b506101426102083660046113da565b63bc197c8160e01b95945050505050565b34801561022557600080fd5b50610102610234366004611488565b610801565b34801561024557600080fd5b506102746102543660046114b4565b600260208190526000918252604090912080546001820154919092015483565b6040805193845260208401929092529082015260600161010e565b34801561029b57600080fd5b506101026102aa3660046114b4565b610ce2565b3480156102bb57600080fd5b506102dc6102ca3660046114b4565b60036020526000908152604090205481565b60405190815260200161010e565b3480156102f657600080fd5b506101426103053660046114cd565b63f23a6e6160e01b95945050505050565b34801561032257600080fd5b5061017b61033136600461133d565b610f8f565b60006001600160e01b03198216630271189760e51b148061036757506301ffc9a760e01b6001600160e01b03198316145b92915050565b60008281526002602081905260409091200154156103c35760405162461bcd60e51b815260206004820152600e60248201526d105b1c9958591e481c995b9d195960921b60448201526064015b60405180910390fd5b600082815260036020526040902054156104115760405162461bcd60e51b815260206004820152600f60248201526e105b1c9958591e481bd999995c9959608a1b60448201526064016103ba565b60015460405163e419028d60e01b8152600481018490526000916001600160a01b03169063e419028d90602401606060405180830381865afa15801561045b573d6000803e3d6000fd5b505050506040513d601f19601f8201168201806040525081019061047f9190611536565b80519091506001600160a01b031633146104c95760405162461bcd60e51b815260206004820152600b60248201526a139bdd08185b1b1bddd95960aa1b60448201526064016103ba565b6000821161050f5760405162461bcd60e51b8152602060048201526013602482015272496e76616c69642070726963652076616c756560681b60448201526064016103ba565b5060009182526003602052604090912055565b6000546001600160a01b0316331461054c5760405162461bcd60e51b81526004016103ba906115a1565b610556600061102a565b565b600082815260036020526040812054906018603c61057681866115ec565b61058091906115ec565b61058a91906115ec565b60008581526002602081905260409091200154909150156105de5760405162461bcd60e51b815260206004820152600e60248201526d105b1c9958591e481c995b9d195960921b60448201526064016103ba565b6000821161061c5760405162461bcd60e51b815260206004820152600b60248201526a4e6f742072656e74696e6760a81b60448201526064016103ba565b6201518083116106645760405162461bcd60e51b8152602060048201526013602482015272135a5b881bdb994819185e481d1bc81c995b9d606a1b60448201526064016103ba565b61066e828261160e565b3410156106b05760405162461bcd60e51b815260206004820152601060248201526f4e6f7420656e6f7567682066756e647360801b60448201526064016103ba565b6000848152600260208181526040808420428155600180820189905593018690556003909152808320839055905490516331a9108f60e11b8152600481018790526001600160a01b0390911690636352211e90602401602060405180830381865afa158015610723573d6000803e3d6000fd5b505050506040513d601f19601f82011682018060405250810190610747919061162d565b6001546040516323b872dd60e01b81529192506001600160a01b0316906323b872dd9061077c90849033908a9060040161164a565b600060405180830381600087803b15801561079657600080fd5b505af11580156107aa573d6000803e3d6000fd5b505050505050505050565b6000546001600160a01b031633146107df5760405162461bcd60e51b81526004016103ba906115a1565b600180546001600160a01b0319166001600160a01b0392909216919091179055565b600080610815846380ac58cd60e01b61107a565b9050600061082a85636cdb3d1360e11b61107a565b905081806108355750805b6108795760405162461bcd60e51b8152602060048201526015602482015274496e76616c696420636f6e7472616374207479706560581b60448201526064016103ba565b8115610ab1576040516331a9108f60e11b81526004810185905233906001600160a01b03871690636352211e90602401602060405180830381865afa1580156108c6573d6000803e3d6000fd5b505050506040513d601f19601f820116820180604052508101906108ea919061162d565b6001600160a01b03161461092f5760405162461bcd60e51b815260206004820152600c60248201526b2737ba1030b71037bbb732b960a11b60448201526064016103ba565b60405163e985e9c560e01b81523360048201523060248201526001600160a01b0386169063e985e9c590604401602060405180830381865afa158015610979573d6000803e3d6000fd5b505050506040513d601f19601f8201168201806040525081019061099d919061166e565b6109de5760405162461bcd60e51b8152602060048201526012602482015271417070726f7665206973206d697373696e6760701b60448201526064016103ba565b604051632142170760e11b81526001600160a01b038616906342842e0e90610a0e9033903090899060040161164a565b600060405180830381600087803b158015610a2857600080fd5b505af1158015610a3c573d6000803e3d6000fd5b5050600154604051636361ddf360e11b81526001600160a01b03909116925063c6c3bbe69150610a749033908990899060040161164a565b600060405180830381600087803b158015610a8e57600080fd5b505af1158015610aa2573d6000803e3d6000fd5b50505050600192505050610367565b604051627eeac760e11b8152336004820152602481018590526000906001600160a01b0387169062fdd58e90604401602060405180830381865afa158015610afd573d6000803e3d6000fd5b505050506040513d601f19601f82011682018060405250810190610b219190611690565b11610b5d5760405162461bcd60e51b815260206004820152600c60248201526b2737ba1030b71037bbb732b960a11b60448201526064016103ba565b60405163e985e9c560e01b81523360048201523060248201526001600160a01b0386169063e985e9c590604401602060405180830381865afa158015610ba7573d6000803e3d6000fd5b505050506040513d601f19601f82011682018060405250810190610bcb919061166e565b610c0c5760405162461bcd60e51b8152602060048201526012602482015271417070726f7665206973206d697373696e6760701b60448201526064016103ba565b604051637921219560e11b81526001600160a01b0386169063f242432a90610c3f903390309089906001906004016116a9565b600060405180830381600087803b158015610c5957600080fd5b505af1158015610c6d573d6000803e3d6000fd5b5050600154604051636361ddf360e11b81526001600160a01b03909116925063c6c3bbe69150610ca59033908990899060040161164a565b600060405180830381600087803b158015610cbf57600080fd5b505af1158015610cd3573d6000803e3d6000fd5b50600198975050505050505050565b60015460405163e419028d60e01b81526004810183905260009182916001600160a01b039091169063e419028d90602401606060405180830381865afa158015610d30573d6000803e3d6000fd5b505050506040513d601f19601f82011682018060405250810190610d549190611536565b80519091506001600160a01b03163314610d9e5760405162461bcd60e51b815260206004820152600b60248201526a139bdd08185b1b1bddd95960aa1b60448201526064016103ba565b60008381526002602081815260409283902083516060810185528154808252600183015493820184905291909301549383019390935290914291610de1916116e1565b10610e2e5760405162461bcd60e51b815260206004820152601f60248201527f52656e74206475726174696f6e20706572696f642069736e2774206f7665720060448201526064016103ba565b600084815260026020818152604080842084815560018082018690559301849055600390915280832083905590549051630852cd8d60e31b815260048101879052829182916001600160a01b03909116906342966c68906024016060604051808303816000875af1158015610ea7573d6000803e3d6000fd5b505050506040513d601f19601f82011682018060405250810190610ecb91906116f9565b9250925092506000610ee4836380ac58cd60e01b61107a565b90508015610f5c576040516323b872dd60e01b81526001600160a01b038416906323b872dd90610f1c9030908890879060040161164a565b600060405180830381600087803b158015610f3657600080fd5b505af1158015610f4a573d6000803e3d6000fd5b5060019b9a5050505050505050505050565b604051637921219560e11b81526001600160a01b0384169063f242432a90610f1c903090889087906001906004016116a9565b6000546001600160a01b03163314610fb95760405162461bcd60e51b81526004016103ba906115a1565b6001600160a01b03811661101e5760405162461bcd60e51b815260206004820152602660248201527f4f776e61626c653a206e6577206f776e657220697320746865207a65726f206160448201526564647265737360d01b60648201526084016103ba565b6110278161102a565b50565b600080546001600160a01b038381166001600160a01b0319831681178455604051919092169283917f8be0079c531659141344cd1fd0a4f28419497f9722a3daafe3b4186f6b6457e09190a35050565b60006110858361109d565b8015611096575061109683836110d0565b9392505050565b60006110b0826301ffc9a760e01b6110d0565b801561036757506110c9826001600160e01b03196110d0565b1592915050565b604080516001600160e01b0319831660248083019190915282518083039091018152604490910182526020810180516001600160e01b03166301ffc9a760e01b179052905160009190829081906001600160a01b038716906175309061113790869061173c565b6000604051808303818686fa925050503d8060008114611173576040519150601f19603f3d011682016040523d82523d6000602084013e611178565b606091505b50915091506020815110156111935760009350505050610367565b8180156111af5750808060200190518101906111af919061166e565b9695505050505050565b6000602082840312156111cb57600080fd5b81356001600160e01b03198116811461109657600080fd5b6001600160a01b038116811461102757600080fd5b634e487b7160e01b600052604160045260246000fd5b604051601f8201601f1916810167ffffffffffffffff81118282101715611237576112376111f8565b604052919050565b600082601f83011261125057600080fd5b813567ffffffffffffffff81111561126a5761126a6111f8565b61127d601f8201601f191660200161120e565b81815284602083860101111561129257600080fd5b816020850160208301376000918101602001919091529392505050565b600080600080608085870312156112c557600080fd5b84356112d0816111e3565b935060208501356112e0816111e3565b925060408501359150606085013567ffffffffffffffff81111561130357600080fd5b61130f8782880161123f565b91505092959194509250565b6000806040838503121561132e57600080fd5b50508035926020909101359150565b60006020828403121561134f57600080fd5b8135611096816111e3565b600082601f83011261136b57600080fd5b8135602067ffffffffffffffff821115611387576113876111f8565b8160051b61139682820161120e565b92835284810182019282810190878511156113b057600080fd5b83870192505b848310156113cf578235825291830191908301906113b6565b979650505050505050565b600080600080600060a086880312156113f257600080fd5b85356113fd816111e3565b9450602086013561140d816111e3565b9350604086013567ffffffffffffffff8082111561142a57600080fd5b61143689838a0161135a565b9450606088013591508082111561144c57600080fd5b61145889838a0161135a565b9350608088013591508082111561146e57600080fd5b5061147b8882890161123f565b9150509295509295909350565b6000806040838503121561149b57600080fd5b82356114a6816111e3565b946020939093013593505050565b6000602082840312156114c657600080fd5b5035919050565b600080600080600060a086880312156114e557600080fd5b85356114f0816111e3565b94506020860135611500816111e3565b93506040860135925060608601359150608086013567ffffffffffffffff81111561152a57600080fd5b61147b8882890161123f565b60006060828403121561154857600080fd5b6040516060810181811067ffffffffffffffff8211171561156b5761156b6111f8565b6040528251611579816111e3565b81526020830151611589816111e3565b60208201526040928301519281019290925250919050565b6020808252818101527f4f776e61626c653a2063616c6c6572206973206e6f7420746865206f776e6572604082015260600190565b634e487b7160e01b600052601160045260246000fd5b60008261160957634e487b7160e01b600052601260045260246000fd5b500490565b6000816000190483118215151615611628576116286115d6565b500290565b60006020828403121561163f57600080fd5b8151611096816111e3565b6001600160a01b039384168152919092166020820152604081019190915260600190565b60006020828403121561168057600080fd5b8151801515811461109657600080fd5b6000602082840312156116a257600080fd5b5051919050565b6001600160a01b0394851681529290931660208301526040820152606081019190915260a06080820181905260009082015260c00190565b600082198211156116f4576116f46115d6565b500190565b60008060006060848603121561170e57600080fd5b8351611719816111e3565b602085015190935061172a816111e3565b80925050604084015190509250925092565b6000825160005b8181101561175d5760208186018101518583015201611743565b8181111561176c576000828501525b50919091019291505056fea26469706673582212204e1a516975adf73ab539fd8c2ae2515b1a80c2829ac6f4225a52b98bb17e97b464736f6c634300080b0033",
  "devdoc": {
    "kind": "dev",
    "methods": {
      "onERC721Received(address,address,uint256,bytes)": {
        "details": "See {IERC721Receiver-onERC721Received}. Always returns `IERC721Receiver.onERC721Received.selector`."
      },
      "owner()": {
        "details": "Returns the address of the current owner."
      },
      "renounceOwnership()": {
        "details": "Leaves the contract without owner. It will not be possible to call `onlyOwner` functions anymore. Can only be called by the current owner. NOTE: Renouncing ownership will leave the contract without an owner, thereby removing any functionality that is only available to the owner."
      },
      "rent(uint256,uint256)": {
        "params": {
          "_duration": "Rent duration in seconds",
          "_tokenId": "Token which is going tobe rented"
        }
      },
      "supportsInterface(bytes4)": {
        "details": "See {IERC165-supportsInterface}."
      },
      "transferOwnership(address)": {
        "details": "Transfers ownership of the contract to a new account (`newOwner`). Can only be called by the current owner."
      }
    },
    "version": 1
  },
  "userdoc": {
    "kind": "user",
    "methods": {},
    "version": 1
  },
  "storageLayout": {
    "storage": [
      {
        "astId": 539,
        "contract": "contracts/Renfter.sol:Renfter",
        "label": "_owner",
        "offset": 0,
        "slot": "0",
        "type": "t_address"
      },
      {
        "astId": 4608,
        "contract": "contracts/Renfter.sol:Renfter",
        "label": "wNFT",
        "offset": 0,
        "slot": "1",
        "type": "t_contract(IwNFT)4590"
      },
      {
        "astId": 4623,
        "contract": "contracts/Renfter.sol:Renfter",
        "label": "rentedNFTs",
        "offset": 0,
        "slot": "2",
        "type": "t_mapping(t_uint256,t_struct(RentedNFT)4615_storage)"
      },
      {
        "astId": 4628,
        "contract": "contracts/Renfter.sol:Renfter",
        "label": "nftsForRenting",
        "offset": 0,
        "slot": "3",
        "type": "t_mapping(t_uint256,t_struct(NFTForRenting)4618_storage)"
      }
    ],
    "types": {
      "t_address": {
        "encoding": "inplace",
        "label": "address",
        "numberOfBytes": "20"
      },
      "t_contract(IwNFT)4590": {
        "encoding": "inplace",
        "label": "contract IwNFT",
        "numberOfBytes": "20"
      },
      "t_mapping(t_uint256,t_struct(NFTForRenting)4618_storage)": {
        "encoding": "mapping",
        "key": "t_uint256",
        "label": "mapping(uint256 => struct Renfter.NFTForRenting)",
        "numberOfBytes": "32",
        "value": "t_struct(NFTForRenting)4618_storage"
      },
      "t_mapping(t_uint256,t_struct(RentedNFT)4615_storage)": {
        "encoding": "mapping",
        "key": "t_uint256",
        "label": "mapping(uint256 => struct Renfter.RentedNFT)",
        "numberOfBytes": "32",
        "value": "t_struct(RentedNFT)4615_storage"
      },
      "t_struct(NFTForRenting)4618_storage": {
        "encoding": "inplace",
        "label": "struct Renfter.NFTForRenting",
        "members": [
          {
            "astId": 4617,
            "contract": "contracts/Renfter.sol:Renfter",
            "label": "pricePerDay",
            "offset": 0,
            "slot": "0",
            "type": "t_uint256"
          }
        ],
        "numberOfBytes": "32"
      },
      "t_struct(RentedNFT)4615_storage": {
        "encoding": "inplace",
        "label": "struct Renfter.RentedNFT",
        "members": [
          {
            "astId": 4610,
            "contract": "contracts/Renfter.sol:Renfter",
            "label": "rentStartTimestamp",
            "offset": 0,
            "slot": "0",
            "type": "t_uint256"
          },
          {
            "astId": 4612,
            "contract": "contracts/Renfter.sol:Renfter",
            "label": "rentDuration",
            "offset": 0,
            "slot": "1",
            "type": "t_uint256"
          },
          {
            "astId": 4614,
            "contract": "contracts/Renfter.sol:Renfter",
            "label": "pricePerDay",
            "offset": 0,
            "slot": "2",
            "type": "t_uint256"
          }
        ],
        "numberOfBytes": "96"
      },
      "t_uint256": {
        "encoding": "inplace",
        "label": "uint256",
        "numberOfBytes": "32"
      }
    }
  }
}