{
  "address": "0x5FbDB2315678afecb367f032d93F642f64180aa3",
  "abi": [
    {
      "inputs": [],
      "stateMutability": "nonpayable",
      "type": "constructor"
    },
    {
      "anonymous": false,
      "inputs": [
        {
          "indexed": true,
          "internalType": "address",
          "name": "owner",
          "type": "address"
        },
        {
          "indexed": true,
          "internalType": "address",
          "name": "approved",
          "type": "address"
        },
        {
          "indexed": true,
          "internalType": "uint256",
          "name": "tokenId",
          "type": "uint256"
        }
      ],
      "name": "Approval",
      "type": "event"
    },
    {
      "anonymous": false,
      "inputs": [
        {
          "indexed": true,
          "internalType": "address",
          "name": "owner",
          "type": "address"
        },
        {
          "indexed": true,
          "internalType": "address",
          "name": "operator",
          "type": "address"
        },
        {
          "indexed": false,
          "internalType": "bool",
          "name": "approved",
          "type": "bool"
        }
      ],
      "name": "ApprovalForAll",
      "type": "event"
    },
    {
      "anonymous": false,
      "inputs": [
        {
          "indexed": true,
          "internalType": "address",
          "name": "creator",
          "type": "address"
        },
        {
          "indexed": true,
          "internalType": "address",
          "name": "contractAddress",
          "type": "address"
        },
        {
          "indexed": false,
          "internalType": "uint256",
          "name": "originaId",
          "type": "uint256"
        },
        {
          "indexed": true,
          "internalType": "uint256",
          "name": "internalId",
          "type": "uint256"
        }
      ],
      "name": "CreateWrappedNFT",
      "type": "event"
    },
    {
      "anonymous": false,
      "inputs": [
        {
          "indexed": true,
          "internalType": "bytes32",
          "name": "role",
          "type": "bytes32"
        },
        {
          "indexed": true,
          "internalType": "bytes32",
          "name": "previousAdminRole",
          "type": "bytes32"
        },
        {
          "indexed": true,
          "internalType": "bytes32",
          "name": "newAdminRole",
          "type": "bytes32"
        }
      ],
      "name": "RoleAdminChanged",
      "type": "event"
    },
    {
      "anonymous": false,
      "inputs": [
        {
          "indexed": true,
          "internalType": "bytes32",
          "name": "role",
          "type": "bytes32"
        },
        {
          "indexed": true,
          "internalType": "address",
          "name": "account",
          "type": "address"
        },
        {
          "indexed": true,
          "internalType": "address",
          "name": "sender",
          "type": "address"
        }
      ],
      "name": "RoleGranted",
      "type": "event"
    },
    {
      "anonymous": false,
      "inputs": [
        {
          "indexed": true,
          "internalType": "bytes32",
          "name": "role",
          "type": "bytes32"
        },
        {
          "indexed": true,
          "internalType": "address",
          "name": "account",
          "type": "address"
        },
        {
          "indexed": true,
          "internalType": "address",
          "name": "sender",
          "type": "address"
        }
      ],
      "name": "RoleRevoked",
      "type": "event"
    },
    {
      "anonymous": false,
      "inputs": [
        {
          "indexed": true,
          "internalType": "address",
          "name": "from",
          "type": "address"
        },
        {
          "indexed": true,
          "internalType": "address",
          "name": "to",
          "type": "address"
        },
        {
          "indexed": true,
          "internalType": "uint256",
          "name": "tokenId",
          "type": "uint256"
        }
      ],
      "name": "Transfer",
      "type": "event"
    },
    {
      "inputs": [],
      "name": "BURNER_ROLE",
      "outputs": [
        {
          "internalType": "bytes32",
          "name": "",
          "type": "bytes32"
        }
      ],
      "stateMutability": "view",
      "type": "function"
    },
    {
      "inputs": [],
      "name": "DEFAULT_ADMIN_ROLE",
      "outputs": [
        {
          "internalType": "bytes32",
          "name": "",
          "type": "bytes32"
        }
      ],
      "stateMutability": "view",
      "type": "function"
    },
    {
      "inputs": [],
      "name": "MINTER_ROLE",
      "outputs": [
        {
          "internalType": "bytes32",
          "name": "",
          "type": "bytes32"
        }
      ],
      "stateMutability": "view",
      "type": "function"
    },
    {
      "inputs": [],
      "name": "SUPERADMIN_ROLE",
      "outputs": [
        {
          "internalType": "bytes32",
          "name": "",
          "type": "bytes32"
        }
      ],
      "stateMutability": "view",
      "type": "function"
    },
    {
      "inputs": [
        {
          "internalType": "address",
          "name": "to",
          "type": "address"
        },
        {
          "internalType": "uint256",
          "name": "tokenId",
          "type": "uint256"
        }
      ],
      "name": "approve",
      "outputs": [],
      "stateMutability": "nonpayable",
      "type": "function"
    },
    {
      "inputs": [
        {
          "internalType": "address",
          "name": "owner",
          "type": "address"
        }
      ],
      "name": "balanceOf",
      "outputs": [
        {
          "internalType": "uint256",
          "name": "",
          "type": "uint256"
        }
      ],
      "stateMutability": "view",
      "type": "function"
    },
    {
      "inputs": [
        {
          "internalType": "uint256",
          "name": "_tokenId",
          "type": "uint256"
        }
      ],
      "name": "burn",
      "outputs": [
        {
          "internalType": "address",
          "name": "",
          "type": "address"
        },
        {
          "internalType": "address",
          "name": "",
          "type": "address"
        },
        {
          "internalType": "uint256",
          "name": "",
          "type": "uint256"
        }
      ],
      "stateMutability": "nonpayable",
      "type": "function"
    },
    {
      "inputs": [
        {
          "internalType": "uint256",
          "name": "tokenId",
          "type": "uint256"
        }
      ],
      "name": "getApproved",
      "outputs": [
        {
          "internalType": "address",
          "name": "",
          "type": "address"
        }
      ],
      "stateMutability": "view",
      "type": "function"
    },
    {
      "inputs": [
        {
          "internalType": "address",
          "name": "_contractAddress",
          "type": "address"
        },
        {
          "internalType": "uint256",
          "name": "_tokenId",
          "type": "uint256"
        }
      ],
      "name": "getBeneficiary",
      "outputs": [
        {
          "internalType": "address",
          "name": "",
          "type": "address"
        }
      ],
      "stateMutability": "view",
      "type": "function"
    },
    {
      "inputs": [
        {
          "internalType": "uint256",
          "name": "_tokenId",
          "type": "uint256"
        }
      ],
      "name": "getOriginalTokenData",
      "outputs": [
        {
          "components": [
            {
              "internalType": "address",
              "name": "superOwner",
              "type": "address"
            },
            {
              "internalType": "address",
              "name": "contractAddress",
              "type": "address"
            },
            {
              "internalType": "uint256",
              "name": "externalTokenId",
              "type": "uint256"
            }
          ],
          "internalType": "struct wNFT.originalTokenData",
          "name": "",
          "type": "tuple"
        }
      ],
      "stateMutability": "view",
      "type": "function"
    },
    {
      "inputs": [
        {
          "internalType": "bytes32",
          "name": "role",
          "type": "bytes32"
        }
      ],
      "name": "getRoleAdmin",
      "outputs": [
        {
          "internalType": "bytes32",
          "name": "",
          "type": "bytes32"
        }
      ],
      "stateMutability": "view",
      "type": "function"
    },
    {
      "inputs": [
        {
          "internalType": "bytes32",
          "name": "role",
          "type": "bytes32"
        },
        {
          "internalType": "uint256",
          "name": "index",
          "type": "uint256"
        }
      ],
      "name": "getRoleMember",
      "outputs": [
        {
          "internalType": "address",
          "name": "",
          "type": "address"
        }
      ],
      "stateMutability": "view",
      "type": "function"
    },
    {
      "inputs": [
        {
          "internalType": "bytes32",
          "name": "role",
          "type": "bytes32"
        }
      ],
      "name": "getRoleMemberCount",
      "outputs": [
        {
          "internalType": "uint256",
          "name": "",
          "type": "uint256"
        }
      ],
      "stateMutability": "view",
      "type": "function"
    },
    {
      "inputs": [
        {
          "internalType": "bytes32",
          "name": "role",
          "type": "bytes32"
        },
        {
          "internalType": "address",
          "name": "account",
          "type": "address"
        }
      ],
      "name": "grantRole",
      "outputs": [],
      "stateMutability": "nonpayable",
      "type": "function"
    },
    {
      "inputs": [
        {
          "internalType": "bytes32",
          "name": "role",
          "type": "bytes32"
        },
        {
          "internalType": "address",
          "name": "account",
          "type": "address"
        }
      ],
      "name": "hasRole",
      "outputs": [
        {
          "internalType": "bool",
          "name": "",
          "type": "bool"
        }
      ],
      "stateMutability": "view",
      "type": "function"
    },
    {
      "inputs": [
        {
          "internalType": "address",
          "name": "owner",
          "type": "address"
        },
        {
          "internalType": "address",
          "name": "operator",
          "type": "address"
        }
      ],
      "name": "isApprovedForAll",
      "outputs": [
        {
          "internalType": "bool",
          "name": "",
          "type": "bool"
        }
      ],
      "stateMutability": "view",
      "type": "function"
    },
    {
      "inputs": [
        {
          "internalType": "address",
          "name": "_to",
          "type": "address"
        },
        {
          "internalType": "address",
          "name": "_contractAddress",
          "type": "address"
        },
        {
          "internalType": "uint256",
          "name": "_tokenId",
          "type": "uint256"
        }
      ],
      "name": "mint",
      "outputs": [],
      "stateMutability": "nonpayable",
      "type": "function"
    },
    {
      "inputs": [],
      "name": "name",
      "outputs": [
        {
          "internalType": "string",
          "name": "",
          "type": "string"
        }
      ],
      "stateMutability": "view",
      "type": "function"
    },
    {
      "inputs": [
        {
          "internalType": "uint256",
          "name": "tokenId",
          "type": "uint256"
        }
      ],
      "name": "ownerOf",
      "outputs": [
        {
          "internalType": "address",
          "name": "",
          "type": "address"
        }
      ],
      "stateMutability": "view",
      "type": "function"
    },
    {
      "inputs": [
        {
          "internalType": "bytes32",
          "name": "role",
          "type": "bytes32"
        },
        {
          "internalType": "address",
          "name": "account",
          "type": "address"
        }
      ],
      "name": "renounceRole",
      "outputs": [],
      "stateMutability": "nonpayable",
      "type": "function"
    },
    {
      "inputs": [
        {
          "internalType": "bytes32",
          "name": "role",
          "type": "bytes32"
        },
        {
          "internalType": "address",
          "name": "account",
          "type": "address"
        }
      ],
      "name": "revokeRole",
      "outputs": [],
      "stateMutability": "nonpayable",
      "type": "function"
    },
    {
      "inputs": [
        {
          "internalType": "address",
          "name": "from",
          "type": "address"
        },
        {
          "internalType": "address",
          "name": "to",
          "type": "address"
        },
        {
          "internalType": "uint256",
          "name": "tokenId",
          "type": "uint256"
        }
      ],
      "name": "safeTransferFrom",
      "outputs": [],
      "stateMutability": "nonpayable",
      "type": "function"
    },
    {
      "inputs": [
        {
          "internalType": "address",
          "name": "from",
          "type": "address"
        },
        {
          "internalType": "address",
          "name": "to",
          "type": "address"
        },
        {
          "internalType": "uint256",
          "name": "tokenId",
          "type": "uint256"
        },
        {
          "internalType": "bytes",
          "name": "_data",
          "type": "bytes"
        }
      ],
      "name": "safeTransferFrom",
      "outputs": [],
      "stateMutability": "nonpayable",
      "type": "function"
    },
    {
      "inputs": [
        {
          "internalType": "address",
          "name": "operator",
          "type": "address"
        },
        {
          "internalType": "bool",
          "name": "approved",
          "type": "bool"
        }
      ],
      "name": "setApprovalForAll",
      "outputs": [],
      "stateMutability": "nonpayable",
      "type": "function"
    },
    {
      "inputs": [
        {
          "internalType": "bytes4",
          "name": "interfaceId",
          "type": "bytes4"
        }
      ],
      "name": "supportsInterface",
      "outputs": [
        {
          "internalType": "bool",
          "name": "",
          "type": "bool"
        }
      ],
      "stateMutability": "view",
      "type": "function"
    },
    {
      "inputs": [],
      "name": "symbol",
      "outputs": [
        {
          "internalType": "string",
          "name": "",
          "type": "string"
        }
      ],
      "stateMutability": "view",
      "type": "function"
    },
    {
      "inputs": [
        {
          "internalType": "uint256",
          "name": "_tokenId",
          "type": "uint256"
        }
      ],
      "name": "tokenURI",
      "outputs": [
        {
          "internalType": "string",
          "name": "",
          "type": "string"
        }
      ],
      "stateMutability": "view",
      "type": "function"
    },
    {
      "inputs": [
        {
          "internalType": "address",
          "name": "from",
          "type": "address"
        },
        {
          "internalType": "address",
          "name": "to",
          "type": "address"
        },
        {
          "internalType": "uint256",
          "name": "tokenId",
          "type": "uint256"
        }
      ],
      "name": "transferFrom",
      "outputs": [],
      "stateMutability": "nonpayable",
      "type": "function"
    }
  ],
  "transactionHash": "0x465125b347866a905be82ad8be6d0a35e2cc44355662b8ebb3db0704e0ea78b6",
  "args": [],
  "numDeployments": 1,
  "solcInputHash": "53a3f039a81b75e29865af28ca032b0c",
  "bytecode": "0x60806040523480156200001157600080fd5b50604080518082018252600c81526b57726170706564204e46547360a01b6020808301918252835180850190945260048452631dd3919560e21b9084015281519192916200006291600091620001f9565b50805162000078906001906020840190620001f9565b506200008a9150600090503362000090565b620002dc565b6200009c8282620000a0565b5050565b620000b78282620000e360201b620010c91760201c565b6000828152600760209081526040909120620000de9183906200114f62000187821b17901c565b505050565b60008281526006602090815260408083206001600160a01b038516845290915290205460ff166200009c5760008281526006602090815260408083206001600160a01b03851684529091529020805460ff19166001179055620001433390565b6001600160a01b0316816001600160a01b0316837f2f8788117e7eff1d82e926ec794901d17c78024a50270940304540a733656f0d60405160405180910390a45050565b60006200019e836001600160a01b038416620001a7565b90505b92915050565b6000818152600183016020526040812054620001f057508154600181810184556000848152602080822090930184905584548482528286019093526040902091909155620001a1565b506000620001a1565b82805462000207906200029f565b90600052602060002090601f0160209004810192826200022b576000855562000276565b82601f106200024657805160ff191683800117855562000276565b8280016001018555821562000276579182015b828111156200027657825182559160200191906001019062000259565b506200028492915062000288565b5090565b5b8082111562000284576000815560010162000289565b600181811c90821680620002b457607f821691505b60208210811415620002d657634e487b7160e01b600052602260045260246000fd5b50919050565b61277e80620002ec6000396000f3fe608060405234801561001057600080fd5b50600436106101c45760003560e01c80639010d07c116100f9578063c87b56dd11610097578063d547741f11610071578063d547741f14610418578063e419028d1461042b578063e985e9c51461046e578063fce0c454146104aa57600080fd5b8063c87b56dd146103cb578063ca15c873146103de578063d5391393146103f157600080fd5b8063a217fddf116100d3578063a217fddf1461038a578063a22cb46514610392578063b88d4fde146103a5578063c6c3bbe6146103b857600080fd5b80639010d07c1461035c57806391d148541461036f57806395d89b411461038257600080fd5b8063282c51f31161016657806342842e0e1161014057806342842e0e146102ea57806342966c68146102fd5780636352211e1461033657806370a082311461034957600080fd5b8063282c51f31461029d5780632f2ff15d146102c457806336568abe146102d757600080fd5b8063095ea7b3116101a2578063095ea7b3146102315780630a6cef461461024657806323b872dd14610259578063248a9ca31461026c57600080fd5b806301ffc9a7146101c957806306fdde03146101f1578063081812fc14610206575b600080fd5b6101dc6101d736600461212c565b6104d1565b60405190151581526020015b60405180910390f35b6101f96104e2565b6040516101e891906121a1565b6102196102143660046121b4565b610574565b6040516001600160a01b0390911681526020016101e8565b61024461023f3660046121e9565b61060e565b005b6102196102543660046121e9565b610724565b610244610267366004612213565b610792565b61028f61027a3660046121b4565b60009081526006602052604090206001015490565b6040519081526020016101e8565b61028f7f3c11d16cbaffd01df69ce1c404f6340ee057498f5f00246190ea54220576a84881565b6102446102d236600461224f565b6107f3565b6102446102e536600461224f565b610819565b6102446102f8366004612213565b610897565b61031061030b3660046121b4565b6108b2565b604080516001600160a01b039485168152939092166020840152908201526060016101e8565b6102196103443660046121b4565b61094a565b61028f61035736600461227b565b6109c1565b61021961036a366004612296565b610a48565b6101dc61037d36600461224f565b610a67565b6101f9610a92565b61028f600081565b6102446103a03660046122c6565b610aa1565b6102446103b336600461236c565b610aac565b6102446103c6366004612213565b610b14565b6101f96103d93660046121b4565b610d59565b61028f6103ec3660046121b4565b610f83565b61028f7f9f2df0fed2c77648de5860a4cc508cd0818c85b8b8a1ab4ceeef8d981c8956a681565b61024461042636600461224f565b610f9a565b61043e6104393660046121b4565b610fc0565b6040805182516001600160a01b0390811682526020808501519091169082015291810151908201526060016101e8565b6101dc61047c366004612417565b6001600160a01b03918216600090815260056020908152604080832093909416825291909152205460ff1690565b61028f7f2a287b3aa9cbc4866dd3c137fd192f1c5d81e788c6916b80b84b385305538d2381565b60006104dc82611164565b92915050565b6060600080546104f190612441565b80601f016020809104026020016040519081016040528092919081815260200182805461051d90612441565b801561056a5780601f1061053f5761010080835404028352916020019161056a565b820191906000526020600020905b81548152906001019060200180831161054d57829003601f168201915b5050505050905090565b6000818152600260205260408120546001600160a01b03166105f25760405162461bcd60e51b815260206004820152602c60248201527f4552433732313a20617070726f76656420717565727920666f72206e6f6e657860448201526b34b9ba32b73a103a37b5b2b760a11b60648201526084015b60405180910390fd5b506000908152600460205260409020546001600160a01b031690565b60006106198261094a565b9050806001600160a01b0316836001600160a01b031614156106875760405162461bcd60e51b815260206004820152602160248201527f4552433732313a20617070726f76616c20746f2063757272656e74206f776e656044820152603960f91b60648201526084016105e9565b336001600160a01b03821614806106a357506106a3813361047c565b6107155760405162461bcd60e51b815260206004820152603860248201527f4552433732313a20617070726f76652063616c6c6572206973206e6f74206f7760448201527f6e6572206e6f7220617070726f76656420666f7220616c6c000000000000000060648201526084016105e9565b61071f8383611189565b505050565b6040516bffffffffffffffffffffffff19606084901b1660208201526034810182905260009081906054016040516020818303038152906040529050600b81604051610770919061247c565b908152604051908190036020019020546001600160a01b031691505092915050565b61079c33826111f7565b806107cc57506107cc7f2a287b3aa9cbc4866dd3c137fd192f1c5d81e788c6916b80b84b385305538d2333610a67565b6107e85760405162461bcd60e51b81526004016105e990612498565b61071f8383836112ee565b60008281526006602052604090206001015461080f8133611499565b61071f83836114fd565b6001600160a01b03811633146108895760405162461bcd60e51b815260206004820152602f60248201527f416363657373436f6e74726f6c3a2063616e206f6e6c792072656e6f756e636560448201526e103937b632b9903337b91039b2b63360891b60648201526084016105e9565b610893828261151f565b5050565b61071f83838360405180602001604052806000815250610aac565b60008060006108e17f3c11d16cbaffd01df69ce1c404f6340ee057498f5f00246190ea54220576a84833610a67565b61091b5760405162461bcd60e51b815260206004820152600b60248201526a139bdd08185b1b1bddd95960aa1b60448201526064016105e9565b600061092685610fc0565b905061093185611541565b8051602082015160409092015190969195509350915050565b6000818152600260205260408120546001600160a01b0316806104dc5760405162461bcd60e51b815260206004820152602960248201527f4552433732313a206f776e657220717565727920666f72206e6f6e657869737460448201526832b73a103a37b5b2b760b91b60648201526084016105e9565b60006001600160a01b038216610a2c5760405162461bcd60e51b815260206004820152602a60248201527f4552433732313a2062616c616e636520717565727920666f7220746865207a65604482015269726f206164647265737360b01b60648201526084016105e9565b506001600160a01b031660009081526003602052604090205490565b6000828152600760205260408120610a6090836115e8565b9392505050565b60009182526006602090815260408084206001600160a01b0393909316845291905290205460ff1690565b6060600180546104f190612441565b6108933383836115f4565b610ab633836111f7565b80610ae65750610ae67f2a287b3aa9cbc4866dd3c137fd192f1c5d81e788c6916b80b84b385305538d2333610a67565b610b025760405162461bcd60e51b81526004016105e990612498565b610b0e848484846116c3565b50505050565b7f9f2df0fed2c77648de5860a4cc508cd0818c85b8b8a1ab4ceeef8d981c8956a6610b3f8133611499565b6001600160a01b038316610b955760405162461bcd60e51b815260206004820152601860248201527f496e76616c696420636f6e74726163742061646472657373000000000000000060448201526064016105e9565b610ba3600880546001019055565b6000610bae60085490565b6040516bffffffffffffffffffffffff19606087901b1660208201526034810185905290915060009060540160408051601f198184030181529181526000848152600a60209081529190208251929350610c0c929091840190612040565b5085600982604051610c1e919061247c565b90815260405190819003602001812080546001600160a01b03939093166001600160a01b0319909316929092179091558590600990610c5e90849061247c565b908152602001604051809103902060010160006101000a8154816001600160a01b0302191690836001600160a01b0316021790555083600982604051610ca4919061247c565b90815260200160405180910390206002018190555085600b82604051610cca919061247c565b90815260405190819003602001902080546001600160a01b03929092166001600160a01b0319909216919091179055610d0386836116f6565b81856001600160a01b0316876001600160a01b03167f8b6dddb69cc56654b591b3a0fd755c77ecd58ca15e1dc8de6b4cdea1817ce64a87604051610d4991815260200190565b60405180910390a4505050505050565b6000818152600a6020526040812080546060929190610d7790612441565b80601f0160208091040260200160405190810160405280929190818152602001828054610da390612441565b8015610df05780601f10610dc557610100808354040283529160200191610df0565b820191906000526020600020905b815481529060010190602001808311610dd357829003601f168201915b505050505090506000600982604051610e09919061247c565b908152604051908190036020019020600101546001600160a01b031690506000610e3a82635b5e139f60e01b611710565b90506000610e4f836303a24d0760e21b611710565b90508180610e5a5750805b610eb15760405162461bcd60e51b815260206004820152602260248201527f4d697373696e67206d6574616461746120696e7465726661636520737570706f6044820152611c9d60f21b60648201526084016105e9565b6000600985604051610ec3919061247c565b90815260200160405180910390206002015490508215610f565760405163c87b56dd60e01b8152600481018290526001600160a01b0385169063c87b56dd906024015b600060405180830381865afa158015610f23573d6000803e3d6000fd5b505050506040513d6000823e601f3d908101601f19168201604052610f4b91908101906124f6565b979650505050505050565b6040516303a24d0760e21b8152600481018290526001600160a01b03851690630e89341c90602401610f06565b60008181526007602052604081206104dc9061172c565b600082815260066020526040902060010154610fb68133611499565b61071f838361151f565b60408051606081018252600080825260208201819052918101919091526000828152600a602052604081208054610ff690612441565b80601f016020809104026020016040519081016040528092919081815260200182805461102290612441565b801561106f5780601f106110445761010080835404028352916020019161106f565b820191906000526020600020905b81548152906001019060200180831161105257829003601f168201915b50505050509050600981604051611086919061247c565b90815260408051918290036020908101832060608401835280546001600160a01b0390811685526001820154169184019190915260020154908201529392505050565b6110d38282610a67565b6108935760008281526006602090815260408083206001600160a01b03851684529091529020805460ff1916600117905561110b3390565b6001600160a01b0316816001600160a01b0316837f2f8788117e7eff1d82e926ec794901d17c78024a50270940304540a733656f0d60405160405180910390a45050565b6000610a60836001600160a01b038416611736565b60006001600160e01b03198216635a05180f60e01b14806104dc57506104dc82611785565b600081815260046020526040902080546001600160a01b0319166001600160a01b03841690811790915581906111be8261094a565b6001600160a01b03167f8c5be1e5ebec7d5bd14f71427d1e84f3dd0314c0f7b2291e5b200ac8c7c3b92560405160405180910390a45050565b6000818152600260205260408120546001600160a01b03166112705760405162461bcd60e51b815260206004820152602c60248201527f4552433732313a206f70657261746f7220717565727920666f72206e6f6e657860448201526b34b9ba32b73a103a37b5b2b760a11b60648201526084016105e9565b600061127b8361094a565b9050806001600160a01b0316846001600160a01b031614806112b65750836001600160a01b03166112ab84610574565b6001600160a01b0316145b806112e657506001600160a01b0380821660009081526005602090815260408083209388168352929052205460ff165b949350505050565b826001600160a01b03166113018261094a565b6001600160a01b0316146113695760405162461bcd60e51b815260206004820152602960248201527f4552433732313a207472616e73666572206f6620746f6b656e2074686174206960448201526839903737ba1037bbb760b91b60648201526084016105e9565b6001600160a01b0382166113cb5760405162461bcd60e51b8152602060048201526024808201527f4552433732313a207472616e7366657220746f20746865207a65726f206164646044820152637265737360e01b60648201526084016105e9565b6113d68383836117aa565b6113e1600082611189565b6001600160a01b038316600090815260036020526040812080546001929061140a908490612583565b90915550506001600160a01b038216600090815260036020526040812080546001929061143890849061259a565b909155505060008181526002602052604080822080546001600160a01b0319166001600160a01b0386811691821790925591518493918716917fddf252ad1be2c89b69c2b068fc378daa952ba7f163c4a11628f55a4df523b3ef91a4505050565b6114a38282610a67565b610893576114bb816001600160a01b03166014611920565b6114c6836020611920565b6040516020016114d79291906125b2565b60408051601f198184030181529082905262461bcd60e51b82526105e9916004016121a1565b61150782826110c9565b600082815260076020526040902061071f908261114f565b6115298282611abc565b600082815260076020526040902061071f9082611b23565b600061154c8261094a565b905061155a816000846117aa565b611565600083611189565b6001600160a01b038116600090815260036020526040812080546001929061158e908490612583565b909155505060008281526002602052604080822080546001600160a01b0319169055518391906001600160a01b038416907fddf252ad1be2c89b69c2b068fc378daa952ba7f163c4a11628f55a4df523b3ef908390a45050565b6000610a608383611b38565b816001600160a01b0316836001600160a01b031614156116565760405162461bcd60e51b815260206004820152601960248201527f4552433732313a20617070726f766520746f2063616c6c65720000000000000060448201526064016105e9565b6001600160a01b03838116600081815260056020908152604080832094871680845294825291829020805460ff191686151590811790915591519182527f17307eab39ab6107e8899845ad3d59bd9653f200f220920489ca2b5937696c31910160405180910390a3505050565b6116ce8484846112ee565b6116da84848484611b62565b610b0e5760405162461bcd60e51b81526004016105e990612627565b610893828260405180602001604052806000815250611c60565b600061171b83611c93565b8015610a605750610a608383611cc6565b60006104dc825490565b600081815260018301602052604081205461177d575081546001818101845560008481526020808220909301849055845484825282860190935260409020919091556104dc565b5060006104dc565b60006001600160e01b03198216637965db0b60e01b14806104dc57506104dc82611daf565b6000818152600a6020526040812080546117c390612441565b80601f01602080910402602001604051908101604052809291908181526020018280546117ef90612441565b801561183c5780601f106118115761010080835404028352916020019161183c565b820191906000526020600020905b81548152906001019060200180831161181f57829003601f168201915b50939450505050506001600160a01b0383166118db57600b81604051611862919061247c565b90815260405190819003602001812080546001600160a01b031916905560099061188d90839061247c565b908152604080516020928190038301902080546001600160a01b03199081168255600182018054909116905560006002909101819055848152600a90925281206118d6916120c4565b610b0e565b82600b826040516118ec919061247c565b90815260405190819003602001902080546001600160a01b03929092166001600160a01b0319909216919091179055610b0e565b6060600061192f836002612679565b61193a90600261259a565b67ffffffffffffffff811115611952576119526122fd565b6040519080825280601f01601f19166020018201604052801561197c576020820181803683370190505b509050600360fc1b8160008151811061199757611997612698565b60200101906001600160f81b031916908160001a905350600f60fb1b816001815181106119c6576119c6612698565b60200101906001600160f81b031916908160001a90535060006119ea846002612679565b6119f590600161259a565b90505b6001811115611a6d576f181899199a1a9b1b9c1cb0b131b232b360811b85600f1660108110611a2957611a29612698565b1a60f81b828281518110611a3f57611a3f612698565b60200101906001600160f81b031916908160001a90535060049490941c93611a66816126ae565b90506119f8565b508315610a605760405162461bcd60e51b815260206004820181905260248201527f537472696e67733a20686578206c656e67746820696e73756666696369656e7460448201526064016105e9565b611ac68282610a67565b156108935760008281526006602090815260408083206001600160a01b0385168085529252808320805460ff1916905551339285917ff6391f5c32d9c69d2a47ea670b442974b53935d1edc7fd64eb21e047a839171b9190a45050565b6000610a60836001600160a01b038416611dff565b6000826000018281548110611b4f57611b4f612698565b9060005260206000200154905092915050565b60006001600160a01b0384163b15611c5557604051630a85bd0160e11b81526001600160a01b0385169063150b7a0290611ba69033908990889088906004016126c5565b6020604051808303816000875af1925050508015611be1575060408051601f3d908101601f19168201909252611bde918101906126f8565b60015b611c3b573d808015611c0f576040519150601f19603f3d011682016040523d82523d6000602084013e611c14565b606091505b508051611c335760405162461bcd60e51b81526004016105e990612627565b805181602001fd5b6001600160e01b031916630a85bd0160e11b1490506112e6565b506001949350505050565b611c6a8383611ef2565b611c776000848484611b62565b61071f5760405162461bcd60e51b81526004016105e990612627565b6000611ca6826301ffc9a760e01b611cc6565b80156104dc5750611cbf826001600160e01b0319611cc6565b1592915050565b604080516001600160e01b0319831660248083019190915282518083039091018152604490910182526020810180516001600160e01b03166301ffc9a760e01b179052905160009190829081906001600160a01b0387169061753090611d2d90869061247c565b6000604051808303818686fa925050503d8060008114611d69576040519150601f19603f3d011682016040523d82523d6000602084013e611d6e565b606091505b5091509150602081511015611d8957600093505050506104dc565b818015611da5575080806020019051810190611da59190612715565b9695505050505050565b60006001600160e01b031982166380ac58cd60e01b1480611de057506001600160e01b03198216635b5e139f60e01b145b806104dc57506301ffc9a760e01b6001600160e01b03198316146104dc565b60008181526001830160205260408120548015611ee8576000611e23600183612583565b8554909150600090611e3790600190612583565b9050818114611e9c576000866000018281548110611e5757611e57612698565b9060005260206000200154905080876000018481548110611e7a57611e7a612698565b6000918252602080832090910192909255918252600188019052604090208390555b8554869080611ead57611ead612732565b6001900381819060005260206000200160009055905585600101600086815260200190815260200160002060009055600193505050506104dc565b60009150506104dc565b6001600160a01b038216611f485760405162461bcd60e51b815260206004820181905260248201527f4552433732313a206d696e7420746f20746865207a65726f206164647265737360448201526064016105e9565b6000818152600260205260409020546001600160a01b031615611fad5760405162461bcd60e51b815260206004820152601c60248201527f4552433732313a20746f6b656e20616c7265616479206d696e7465640000000060448201526064016105e9565b611fb9600083836117aa565b6001600160a01b0382166000908152600360205260408120805460019290611fe290849061259a565b909155505060008181526002602052604080822080546001600160a01b0319166001600160a01b03861690811790915590518392907fddf252ad1be2c89b69c2b068fc378daa952ba7f163c4a11628f55a4df523b3ef908290a45050565b82805461204c90612441565b90600052602060002090601f01602090048101928261206e57600085556120b4565b82601f1061208757805160ff19168380011785556120b4565b828001600101855582156120b4579182015b828111156120b4578251825591602001919060010190612099565b506120c0929150612101565b5090565b5080546120d090612441565b6000825580601f106120e0575050565b601f0160209004906000526020600020908101906120fe9190612101565b50565b5b808211156120c05760008155600101612102565b6001600160e01b0319811681146120fe57600080fd5b60006020828403121561213e57600080fd5b8135610a6081612116565b60005b8381101561216457818101518382015260200161214c565b83811115610b0e5750506000910152565b6000815180845261218d816020860160208601612149565b601f01601f19169290920160200192915050565b602081526000610a606020830184612175565b6000602082840312156121c657600080fd5b5035919050565b80356001600160a01b03811681146121e457600080fd5b919050565b600080604083850312156121fc57600080fd5b612205836121cd565b946020939093013593505050565b60008060006060848603121561222857600080fd5b612231846121cd565b925061223f602085016121cd565b9150604084013590509250925092565b6000806040838503121561226257600080fd5b82359150612272602084016121cd565b90509250929050565b60006020828403121561228d57600080fd5b610a60826121cd565b600080604083850312156122a957600080fd5b50508035926020909101359150565b80151581146120fe57600080fd5b600080604083850312156122d957600080fd5b6122e2836121cd565b915060208301356122f2816122b8565b809150509250929050565b634e487b7160e01b600052604160045260246000fd5b604051601f8201601f1916810167ffffffffffffffff8111828210171561233c5761233c6122fd565b604052919050565b600067ffffffffffffffff82111561235e5761235e6122fd565b50601f01601f191660200190565b6000806000806080858703121561238257600080fd5b61238b856121cd565b9350612399602086016121cd565b925060408501359150606085013567ffffffffffffffff8111156123bc57600080fd5b8501601f810187136123cd57600080fd5b80356123e06123db82612344565b612313565b8181528860208385010111156123f557600080fd5b8160208401602083013760006020838301015280935050505092959194509250565b6000806040838503121561242a57600080fd5b612433836121cd565b9150612272602084016121cd565b600181811c9082168061245557607f821691505b6020821081141561247657634e487b7160e01b600052602260045260246000fd5b50919050565b6000825161248e818460208701612149565b9190910192915050565b602080825260409082018190527f4552433732313a207472616e736665722063616c6c6572206973206e6f74206f908201527f776e6572206e6f7220617070726f766564206e6f7220737570657261646d696e606082015260800190565b60006020828403121561250857600080fd5b815167ffffffffffffffff81111561251f57600080fd5b8201601f8101841361253057600080fd5b805161253e6123db82612344565b81815285602083850101111561255357600080fd5b612564826020830160208601612149565b95945050505050565b634e487b7160e01b600052601160045260246000fd5b6000828210156125955761259561256d565b500390565b600082198211156125ad576125ad61256d565b500190565b7f416363657373436f6e74726f6c3a206163636f756e74200000000000000000008152600083516125ea816017850160208801612149565b7001034b99036b4b9b9b4b733903937b6329607d1b601791840191820152835161261b816028840160208801612149565b01602801949350505050565b60208082526032908201527f4552433732313a207472616e7366657220746f206e6f6e20455243373231526560408201527131b2b4bb32b91034b6b83632b6b2b73a32b960711b606082015260800190565b60008160001904831182151516156126935761269361256d565b500290565b634e487b7160e01b600052603260045260246000fd5b6000816126bd576126bd61256d565b506000190190565b6001600160a01b0385811682528416602082015260408101839052608060608201819052600090611da590830184612175565b60006020828403121561270a57600080fd5b8151610a6081612116565b60006020828403121561272757600080fd5b8151610a60816122b8565b634e487b7160e01b600052603160045260246000fdfea2646970667358221220627be3639b6c743b937b639a317ba6a43927c9e412fea34a6c08f3937b927acc64736f6c634300080b0033",
  "devdoc": {
    "kind": "dev",
    "methods": {
      "approve(address,uint256)": {
        "details": "See {IERC721-approve}."
      },
      "balanceOf(address)": {
        "details": "See {IERC721-balanceOf}."
      },
      "getApproved(uint256)": {
        "details": "See {IERC721-getApproved}."
      },
      "getBeneficiary(address,uint256)": {
        "params": {
          "_contractAddress": "Original token contract address",
          "_tokenId": "Original token ID"
        }
      },
      "getOriginalTokenData(uint256)": {
        "params": {
          "_tokenId": "Wrapped token ID"
        }
      },
      "getRoleAdmin(bytes32)": {
        "details": "Returns the admin role that controls `role`. See {grantRole} and {revokeRole}. To change a role's admin, use {_setRoleAdmin}."
      },
      "getRoleMember(bytes32,uint256)": {
        "details": "Returns one of the accounts that have `role`. `index` must be a value between 0 and {getRoleMemberCount}, non-inclusive. Role bearers are not sorted in any particular way, and their ordering may change at any point. WARNING: When using {getRoleMember} and {getRoleMemberCount}, make sure you perform all queries on the same block. See the following https://forum.openzeppelin.com/t/iterating-over-elements-on-enumerableset-in-openzeppelin-contracts/2296[forum post] for more information."
      },
      "getRoleMemberCount(bytes32)": {
        "details": "Returns the number of accounts that have `role`. Can be used together with {getRoleMember} to enumerate all bearers of a role."
      },
      "grantRole(bytes32,address)": {
        "details": "Grants `role` to `account`. If `account` had not been already granted `role`, emits a {RoleGranted} event. Requirements: - the caller must have ``role``'s admin role."
      },
      "hasRole(bytes32,address)": {
        "details": "Returns `true` if `account` has been granted `role`."
      },
      "isApprovedForAll(address,address)": {
        "details": "See {IERC721-isApprovedForAll}."
      },
      "mint(address,address,uint256)": {
        "params": {
          "_contractAddress": "Address of the original contract whose token is being wrapped",
          "_to": "Address that will own the token after minitng",
          "_tokenId": "Id of the token from origina contract that is going to be wrapped"
        }
      },
      "name()": {
        "details": "See {IERC721Metadata-name}."
      },
      "ownerOf(uint256)": {
        "details": "See {IERC721-ownerOf}."
      },
      "renounceRole(bytes32,address)": {
        "details": "Revokes `role` from the calling account. Roles are often managed via {grantRole} and {revokeRole}: this function's purpose is to provide a mechanism for accounts to lose their privileges if they are compromised (such as when a trusted device is misplaced). If the calling account had been revoked `role`, emits a {RoleRevoked} event. Requirements: - the caller must be `account`."
      },
      "revokeRole(bytes32,address)": {
        "details": "Revokes `role` from `account`. If `account` had been granted `role`, emits a {RoleRevoked} event. Requirements: - the caller must have ``role``'s admin role."
      },
      "safeTransferFrom(address,address,uint256)": {
        "details": "See {IERC721-safeTransferFrom}."
      },
      "safeTransferFrom(address,address,uint256,bytes)": {
        "details": "See {IERC721-safeTransferFrom}."
      },
      "setApprovalForAll(address,bool)": {
        "details": "See {IERC721-setApprovalForAll}."
      },
      "symbol()": {
        "details": "See {IERC721Metadata-symbol}."
      },
      "tokenURI(uint256)": {
        "params": {
          "_tokenId": "Wrapped token ID to retrieve original URI for. URI is return from original token contract"
        }
      },
      "transferFrom(address,address,uint256)": {
        "details": "See {IERC721-transferFrom}."
      }
    },
    "version": 1
  },
  "userdoc": {
    "kind": "user",
    "methods": {
      "getBeneficiary(address,uint256)": {
        "notice": "Checks beneficiary who can use token currently"
      },
      "getOriginalTokenData(uint256)": {
        "notice": "Returns data about original tokenCounter"
      },
      "mint(address,address,uint256)": {
        "notice": "Mints new wrapped NFT"
      },
      "tokenURI(uint256)": {
        "notice": "Checks for type and returns original (non-wrapped) token URI"
      }
    },
    "version": 1
  },
  "storageLayout": {
    "storage": [
      {
        "astId": 2021,
        "contract": "contracts/wNFT.sol:wNFT",
        "label": "_name",
        "offset": 0,
        "slot": "0",
        "type": "t_string_storage"
      },
      {
        "astId": 2023,
        "contract": "contracts/wNFT.sol:wNFT",
        "label": "_symbol",
        "offset": 0,
        "slot": "1",
        "type": "t_string_storage"
      },
      {
        "astId": 2027,
        "contract": "contracts/wNFT.sol:wNFT",
        "label": "_owners",
        "offset": 0,
        "slot": "2",
        "type": "t_mapping(t_uint256,t_address)"
      },
      {
        "astId": 2031,
        "contract": "contracts/wNFT.sol:wNFT",
        "label": "_balances",
        "offset": 0,
        "slot": "3",
        "type": "t_mapping(t_address,t_uint256)"
      },
      {
        "astId": 2035,
        "contract": "contracts/wNFT.sol:wNFT",
        "label": "_tokenApprovals",
        "offset": 0,
        "slot": "4",
        "type": "t_mapping(t_uint256,t_address)"
      },
      {
        "astId": 2041,
        "contract": "contracts/wNFT.sol:wNFT",
        "label": "_operatorApprovals",
        "offset": 0,
        "slot": "5",
        "type": "t_mapping(t_address,t_mapping(t_address,t_bool))"
      },
      {
        "astId": 24,
        "contract": "contracts/wNFT.sol:wNFT",
        "label": "_roles",
        "offset": 0,
        "slot": "6",
        "type": "t_mapping(t_bytes32,t_struct(RoleData)19_storage)"
      },
      {
        "astId": 327,
        "contract": "contracts/wNFT.sol:wNFT",
        "label": "_roleMembers",
        "offset": 0,
        "slot": "7",
        "type": "t_mapping(t_bytes32,t_struct(AddressSet)4160_storage)"
      },
      {
        "astId": 5099,
        "contract": "contracts/wNFT.sol:wNFT",
        "label": "tokenCounter",
        "offset": 0,
        "slot": "8",
        "type": "t_struct(Counter)3339_storage"
      },
      {
        "astId": 5111,
        "contract": "contracts/wNFT.sol:wNFT",
        "label": "originalTokens",
        "offset": 0,
        "slot": "9",
        "type": "t_mapping(t_string_memory_ptr,t_struct(originalTokenData)5106_storage)"
      },
      {
        "astId": 5115,
        "contract": "contracts/wNFT.sol:wNFT",
        "label": "tokenIdsToOriginalTokenIds",
        "offset": 0,
        "slot": "10",
        "type": "t_mapping(t_uint256,t_string_storage)"
      },
      {
        "astId": 5119,
        "contract": "contracts/wNFT.sol:wNFT",
        "label": "beneficiary",
        "offset": 0,
        "slot": "11",
        "type": "t_mapping(t_string_memory_ptr,t_address)"
      }
    ],
    "types": {
      "t_address": {
        "encoding": "inplace",
        "label": "address",
        "numberOfBytes": "20"
      },
      "t_array(t_bytes32)dyn_storage": {
        "base": "t_bytes32",
        "encoding": "dynamic_array",
        "label": "bytes32[]",
        "numberOfBytes": "32"
      },
      "t_bool": {
        "encoding": "inplace",
        "label": "bool",
        "numberOfBytes": "1"
      },
      "t_bytes32": {
        "encoding": "inplace",
        "label": "bytes32",
        "numberOfBytes": "32"
      },
      "t_mapping(t_address,t_bool)": {
        "encoding": "mapping",
        "key": "t_address",
        "label": "mapping(address => bool)",
        "numberOfBytes": "32",
        "value": "t_bool"
      },
      "t_mapping(t_address,t_mapping(t_address,t_bool))": {
        "encoding": "mapping",
        "key": "t_address",
        "label": "mapping(address => mapping(address => bool))",
        "numberOfBytes": "32",
        "value": "t_mapping(t_address,t_bool)"
      },
      "t_mapping(t_address,t_uint256)": {
        "encoding": "mapping",
        "key": "t_address",
        "label": "mapping(address => uint256)",
        "numberOfBytes": "32",
        "value": "t_uint256"
      },
      "t_mapping(t_bytes32,t_struct(AddressSet)4160_storage)": {
        "encoding": "mapping",
        "key": "t_bytes32",
        "label": "mapping(bytes32 => struct EnumerableSet.AddressSet)",
        "numberOfBytes": "32",
        "value": "t_struct(AddressSet)4160_storage"
      },
      "t_mapping(t_bytes32,t_struct(RoleData)19_storage)": {
        "encoding": "mapping",
        "key": "t_bytes32",
        "label": "mapping(bytes32 => struct AccessControl.RoleData)",
        "numberOfBytes": "32",
        "value": "t_struct(RoleData)19_storage"
      },
      "t_mapping(t_bytes32,t_uint256)": {
        "encoding": "mapping",
        "key": "t_bytes32",
        "label": "mapping(bytes32 => uint256)",
        "numberOfBytes": "32",
        "value": "t_uint256"
      },
      "t_mapping(t_string_memory_ptr,t_address)": {
        "encoding": "mapping",
        "key": "t_string_memory_ptr",
        "label": "mapping(string => address)",
        "numberOfBytes": "32",
        "value": "t_address"
      },
      "t_mapping(t_string_memory_ptr,t_struct(originalTokenData)5106_storage)": {
        "encoding": "mapping",
        "key": "t_string_memory_ptr",
        "label": "mapping(string => struct wNFT.originalTokenData)",
        "numberOfBytes": "32",
        "value": "t_struct(originalTokenData)5106_storage"
      },
      "t_mapping(t_uint256,t_address)": {
        "encoding": "mapping",
        "key": "t_uint256",
        "label": "mapping(uint256 => address)",
        "numberOfBytes": "32",
        "value": "t_address"
      },
      "t_mapping(t_uint256,t_string_storage)": {
        "encoding": "mapping",
        "key": "t_uint256",
        "label": "mapping(uint256 => string)",
        "numberOfBytes": "32",
        "value": "t_string_storage"
      },
      "t_string_memory_ptr": {
        "encoding": "bytes",
        "label": "string",
        "numberOfBytes": "32"
      },
      "t_string_storage": {
        "encoding": "bytes",
        "label": "string",
        "numberOfBytes": "32"
      },
      "t_struct(AddressSet)4160_storage": {
        "encoding": "inplace",
        "label": "struct EnumerableSet.AddressSet",
        "members": [
          {
            "astId": 4159,
            "contract": "contracts/wNFT.sol:wNFT",
            "label": "_inner",
            "offset": 0,
            "slot": "0",
            "type": "t_struct(Set)3859_storage"
          }
        ],
        "numberOfBytes": "64"
      },
      "t_struct(Counter)3339_storage": {
        "encoding": "inplace",
        "label": "struct Counters.Counter",
        "members": [
          {
            "astId": 3338,
            "contract": "contracts/wNFT.sol:wNFT",
            "label": "_value",
            "offset": 0,
            "slot": "0",
            "type": "t_uint256"
          }
        ],
        "numberOfBytes": "32"
      },
      "t_struct(RoleData)19_storage": {
        "encoding": "inplace",
        "label": "struct AccessControl.RoleData",
        "members": [
          {
            "astId": 16,
            "contract": "contracts/wNFT.sol:wNFT",
            "label": "members",
            "offset": 0,
            "slot": "0",
            "type": "t_mapping(t_address,t_bool)"
          },
          {
            "astId": 18,
            "contract": "contracts/wNFT.sol:wNFT",
            "label": "adminRole",
            "offset": 0,
            "slot": "1",
            "type": "t_bytes32"
          }
        ],
        "numberOfBytes": "64"
      },
      "t_struct(Set)3859_storage": {
        "encoding": "inplace",
        "label": "struct EnumerableSet.Set",
        "members": [
          {
            "astId": 3854,
            "contract": "contracts/wNFT.sol:wNFT",
            "label": "_values",
            "offset": 0,
            "slot": "0",
            "type": "t_array(t_bytes32)dyn_storage"
          },
          {
            "astId": 3858,
            "contract": "contracts/wNFT.sol:wNFT",
            "label": "_indexes",
            "offset": 0,
            "slot": "1",
            "type": "t_mapping(t_bytes32,t_uint256)"
          }
        ],
        "numberOfBytes": "64"
      },
      "t_struct(originalTokenData)5106_storage": {
        "encoding": "inplace",
        "label": "struct wNFT.originalTokenData",
        "members": [
          {
            "astId": 5101,
            "contract": "contracts/wNFT.sol:wNFT",
            "label": "superOwner",
            "offset": 0,
            "slot": "0",
            "type": "t_address"
          },
          {
            "astId": 5103,
            "contract": "contracts/wNFT.sol:wNFT",
            "label": "contractAddress",
            "offset": 0,
            "slot": "1",
            "type": "t_address"
          },
          {
            "astId": 5105,
            "contract": "contracts/wNFT.sol:wNFT",
            "label": "externalTokenId",
            "offset": 0,
            "slot": "2",
            "type": "t_uint256"
          }
        ],
        "numberOfBytes": "96"
      },
      "t_uint256": {
        "encoding": "inplace",
        "label": "uint256",
        "numberOfBytes": "32"
      }
    }
  }
}